{
  "_format": "hh-sol-artifact-1",
  "contractName": "TodoContract",
  "sourceName": "contracts/TodoContract.sol",
  "abi": [
    {
      "anonymous": false,
      "inputs": [
        {
          "indexed": true,
          "internalType": "address",
          "name": "recipient",
          "type": "address"
        },
        {
          "indexed": true,
          "internalType": "uint256",
          "name": "taskId",
          "type": "uint256"
        }
      ],
      "name": "TaskAdded",
      "type": "event"
    },
    {
      "anonymous": false,
      "inputs": [
        {
          "indexed": true,
          "internalType": "uint256",
          "name": "taskId",
          "type": "uint256"
        },
        {
          "indexed": false,
          "internalType": "bool",
          "name": "isDeleted",
          "type": "bool"
        }
      ],
      "name": "TaskDeleted",
      "type": "event"
    },
    {
      "inputs": [
        {
          "internalType": "string",
          "name": "_taskText",
          "type": "string"
        }
      ],
      "name": "createTask",
      "outputs": [],
      "stateMutability": "nonpayable",
      "type": "function"
    },
    {
      "inputs": [
        {
          "internalType": "uint256",
          "name": "_taskId",
          "type": "uint256"
        },
        {
          "internalType": "bool",
          "name": "_isDeleted",
          "type": "bool"
        }
      ],
      "name": "deleteTask",
      "outputs": [],
      "stateMutability": "nonpayable",
      "type": "function"
    },
    {
      "inputs": [],
      "name": "getUserTasks",
      "outputs": [
        {
          "components": [
            {
              "internalType": "uint256",
              "name": "id",
              "type": "uint256"
            },
            {
              "internalType": "string",
              "name": "taskText",
              "type": "string"
            },
            {
              "internalType": "bool",
              "name": "isDeleted",
              "type": "bool"
            }
          ],
          "internalType": "struct TodoContract.Task[]",
          "name": "",
          "type": "tuple[]"
        }
      ],
      "stateMutability": "view",
      "type": "function"
    }
  ],
  "bytecode": "0x608060405234801561001057600080fd5b50610e7a806100206000396000f3fe608060405234801561001057600080fd5b50600436106100415760003560e01c8063111002aa1461004657806334112f5f14610062578063aaba290714610080575b600080fd5b610060600480360381019061005b9190610751565b61009c565b005b61006a6101ca565b604051610077919061095f565b60405180910390f35b61009a600480360381019061009591906109d9565b6104ba565b005b6000808054905090506000604051806060016040528083815260200184815260200160001515815250908060018154018082558091505060019003906000526020600020906003020160009091909190915060008201518160000155602082015181600101908161010d9190610c25565b5060408201518160020160006101000a81548160ff0219169083151502179055505050336001600083815260200190815260200160002060006101000a81548173ffffffffffffffffffffffffffffffffffffffff021916908373ffffffffffffffffffffffffffffffffffffffff160217905550803373ffffffffffffffffffffffffffffffffffffffff167ff2ba834cb120f28cac9129d80d6990b8d99d9a0a71487cec7d88bd8a2ba45cb960405160405180910390a35050565b60606000808054905067ffffffffffffffff8111156101ec576101eb610626565b5b60405190808252806020026020018201604052801561022557816020015b6102126105d4565b81526020019060019003908161020a5790505b5090506000805b600080549050811015610400573373ffffffffffffffffffffffffffffffffffffffff166001600083815260200190815260200160002060009054906101000a900473ffffffffffffffffffffffffffffffffffffffff1673ffffffffffffffffffffffffffffffffffffffff161480156102d75750600081815481106102b6576102b5610cf7565b5b906000526020600020906003020160020160009054906101000a900460ff16155b156103ed57600081815481106102f0576102ef610cf7565b5b90600052602060002090600302016040518060600160405290816000820154815260200160018201805461032390610a48565b80601f016020809104026020016040519081016040528092919081815260200182805461034f90610a48565b801561039c5780601f106103715761010080835404028352916020019161039c565b820191906000526020600020905b81548152906001019060200180831161037f57829003601f168201915b505050505081526020016002820160009054906101000a900460ff1615151515815250508383815181106103d3576103d2610cf7565b5b602002602001018190525081806103e990610d55565b9250505b80806103f890610d55565b91505061022c565b5060008167ffffffffffffffff81111561041d5761041c610626565b5b60405190808252806020026020018201604052801561045657816020015b6104436105d4565b81526020019060019003908161043b5790505b50905060005b828110156104b05783818151811061047757610476610cf7565b5b602002602001015182828151811061049257610491610cf7565b5b602002602001018190525080806104a890610d55565b91505061045c565b5080935050505090565b3373ffffffffffffffffffffffffffffffffffffffff166001600084815260200190815260200160002060009054906101000a900473ffffffffffffffffffffffffffffffffffffffff1673ffffffffffffffffffffffffffffffffffffffff161461055b576040517f08c379a000000000000000000000000000000000000000000000000000000000815260040161055290610dfa565b60405180910390fd5b80600083815481106105705761056f610cf7565b5b906000526020600020906003020160020160006101000a81548160ff021916908315150217905550817f572597a6891de3ffc5ddb25adeb4871a3bf451676410ca50eed9524c49bdc0e6826040516105c89190610e29565b60405180910390a25050565b604051806060016040528060008152602001606081526020016000151581525090565b6000604051905090565b600080fd5b600080fd5b600080fd5b600080fd5b6000601f19601f8301169050919050565b7f4e487b7100000000000000000000000000000000000000000000000000000000600052604160045260246000fd5b61065e82610615565b810181811067ffffffffffffffff8211171561067d5761067c610626565b5b80604052505050565b60006106906105f7565b905061069c8282610655565b919050565b600067ffffffffffffffff8211156106bc576106bb610626565b5b6106c582610615565b9050602081019050919050565b82818337600083830152505050565b60006106f46106ef846106a1565b610686565b9050828152602081018484840111156107105761070f610610565b5b61071b8482856106d2565b509392505050565b600082601f8301126107385761073761060b565b5b81356107488482602086016106e1565b91505092915050565b60006020828403121561076757610766610601565b5b600082013567ffffffffffffffff81111561078557610784610606565b5b61079184828501610723565b91505092915050565b600081519050919050565b600082825260208201905092915050565b6000819050602082019050919050565b6000819050919050565b6107d9816107c6565b82525050565b600081519050919050565b600082825260208201905092915050565b60005b838110156108195780820151818401526020810190506107fe565b60008484015250505050565b6000610830826107df565b61083a81856107ea565b935061084a8185602086016107fb565b61085381610615565b840191505092915050565b60008115159050919050565b6108738161085e565b82525050565b600060608301600083015161089160008601826107d0565b50602083015184820360208601526108a98282610825565b91505060408301516108be604086018261086a565b508091505092915050565b60006108d58383610879565b905092915050565b6000602082019050919050565b60006108f58261079a565b6108ff81856107a5565b935083602082028501610911856107b6565b8060005b8581101561094d578484038952815161092e85826108c9565b9450610939836108dd565b925060208a01995050600181019050610915565b50829750879550505050505092915050565b6000602082019050818103600083015261097981846108ea565b905092915050565b61098a816107c6565b811461099557600080fd5b50565b6000813590506109a781610981565b92915050565b6109b68161085e565b81146109c157600080fd5b50565b6000813590506109d3816109ad565b92915050565b600080604083850312156109f0576109ef610601565b5b60006109fe85828601610998565b9250506020610a0f858286016109c4565b9150509250929050565b7f4e487b7100000000000000000000000000000000000000000000000000000000600052602260045260246000fd5b60006002820490506001821680610a6057607f821691505b602082108103610a7357610a72610a19565b5b50919050565b60008190508160005260206000209050919050565b60006020601f8301049050919050565b600082821b905092915050565b600060088302610adb7fffffffffffffffffffffffffffffffffffffffffffffffffffffffffffffffff82610a9e565b610ae58683610a9e565b95508019841693508086168417925050509392505050565b6000819050919050565b6000610b22610b1d610b18846107c6565b610afd565b6107c6565b9050919050565b6000819050919050565b610b3c83610b07565b610b50610b4882610b29565b848454610aab565b825550505050565b600090565b610b65610b58565b610b70818484610b33565b505050565b5b81811015610b9457610b89600082610b5d565b600181019050610b76565b5050565b601f821115610bd957610baa81610a79565b610bb384610a8e565b81016020851015610bc2578190505b610bd6610bce85610a8e565b830182610b75565b50505b505050565b600082821c905092915050565b6000610bfc60001984600802610bde565b1980831691505092915050565b6000610c158383610beb565b9150826002028217905092915050565b610c2e826107df565b67ffffffffffffffff811115610c4757610c46610626565b5b610c518254610a48565b610c5c828285610b98565b600060209050601f831160018114610c8f5760008415610c7d578287015190505b610c878582610c09565b865550610cef565b601f198416610c9d86610a79565b60005b82811015610cc557848901518255600182019150602085019450602081019050610ca0565b86831015610ce25784890151610cde601f891682610beb565b8355505b6001600288020188555050505b505050505050565b7f4e487b7100000000000000000000000000000000000000000000000000000000600052603260045260246000fd5b7f4e487b7100000000000000000000000000000000000000000000000000000000600052601160045260246000fd5b6000610d60826107c6565b91507fffffffffffffffffffffffffffffffffffffffffffffffffffffffffffffffff8203610d9257610d91610d26565b5b600182019050919050565b600082825260208201905092915050565b7f596f7520646f206e6f74206f776e2074686973207461736b0000000000000000600082015250565b6000610de4601883610d9d565b9150610def82610dae565b602082019050919050565b60006020820190508181036000830152610e1381610dd7565b9050919050565b610e238161085e565b82525050565b6000602082019050610e3e6000830184610e1a565b9291505056fea26469706673582212203e6c37c52102022c7c43655905cfa9840bb96afa70dd1c870db3150f2375a9cf64736f6c63430008120033",
  "linkReferences": {},
  "deployedLinkReferences": {}
}